{
  "contractName": "Vote",
  "abi": [
    {
      "inputs": [
        {
          "internalType": "address",
          "name": "_owner",
          "type": "address"
        }
      ],
      "stateMutability": "nonpayable",
      "type": "constructor"
    },
    {
      "anonymous": false,
      "inputs": [
        {
          "indexed": true,
          "internalType": "address",
          "name": "owner",
          "type": "address"
        },
        {
          "indexed": true,
          "internalType": "address",
          "name": "spender",
          "type": "address"
        },
        {
          "indexed": false,
          "internalType": "uint256",
          "name": "value",
          "type": "uint256"
        }
      ],
      "name": "Approval",
      "type": "event"
    },
    {
      "anonymous": false,
      "inputs": [
        {
          "indexed": true,
          "internalType": "address",
          "name": "from",
          "type": "address"
        },
        {
          "indexed": true,
          "internalType": "address",
          "name": "to",
          "type": "address"
        },
        {
          "indexed": false,
          "internalType": "uint256",
          "name": "value",
          "type": "uint256"
        }
      ],
      "name": "Transfer",
      "type": "event"
    },
    {
      "inputs": [
        {
          "internalType": "address",
          "name": "owner",
          "type": "address"
        },
        {
          "internalType": "address",
          "name": "spender",
          "type": "address"
        }
      ],
      "name": "allowance",
      "outputs": [
        {
          "internalType": "uint256",
          "name": "",
          "type": "uint256"
        }
      ],
      "stateMutability": "view",
      "type": "function",
      "constant": true
    },
    {
      "inputs": [
        {
          "internalType": "address",
          "name": "spender",
          "type": "address"
        },
        {
          "internalType": "uint256",
          "name": "amount",
          "type": "uint256"
        }
      ],
      "name": "approve",
      "outputs": [
        {
          "internalType": "bool",
          "name": "",
          "type": "bool"
        }
      ],
      "stateMutability": "nonpayable",
      "type": "function"
    },
    {
      "inputs": [
        {
          "internalType": "address",
          "name": "account",
          "type": "address"
        }
      ],
      "name": "balanceOf",
      "outputs": [
        {
          "internalType": "uint256",
          "name": "",
          "type": "uint256"
        }
      ],
      "stateMutability": "view",
      "type": "function",
      "constant": true
    },
    {
      "inputs": [],
      "name": "decimals",
      "outputs": [
        {
          "internalType": "uint8",
          "name": "",
          "type": "uint8"
        }
      ],
      "stateMutability": "view",
      "type": "function",
      "constant": true
    },
    {
      "inputs": [
        {
          "internalType": "address",
          "name": "spender",
          "type": "address"
        },
        {
          "internalType": "uint256",
          "name": "subtractedValue",
          "type": "uint256"
        }
      ],
      "name": "decreaseAllowance",
      "outputs": [
        {
          "internalType": "bool",
          "name": "",
          "type": "bool"
        }
      ],
      "stateMutability": "nonpayable",
      "type": "function"
    },
    {
      "inputs": [
        {
          "internalType": "uint256",
          "name": "",
          "type": "uint256"
        }
      ],
      "name": "eventList",
      "outputs": [
        {
          "internalType": "uint16",
          "name": "eventId",
          "type": "uint16"
        },
        {
          "internalType": "address",
          "name": "rewardOwner",
          "type": "address"
        },
        {
          "internalType": "uint256",
          "name": "totalReward",
          "type": "uint256"
        },
        {
          "internalType": "enum Vote.EventState",
          "name": "state",
          "type": "uint8"
        }
      ],
      "stateMutability": "view",
      "type": "function",
      "constant": true
    },
    {
      "inputs": [
        {
          "internalType": "address",
          "name": "spender",
          "type": "address"
        },
        {
          "internalType": "uint256",
          "name": "addedValue",
          "type": "uint256"
        }
      ],
      "name": "increaseAllowance",
      "outputs": [
        {
          "internalType": "bool",
          "name": "",
          "type": "bool"
        }
      ],
      "stateMutability": "nonpayable",
      "type": "function"
    },
    {
      "inputs": [],
      "name": "name",
      "outputs": [
        {
          "internalType": "string",
          "name": "",
          "type": "string"
        }
      ],
      "stateMutability": "view",
      "type": "function",
      "constant": true
    },
    {
      "inputs": [],
      "name": "owner",
      "outputs": [
        {
          "internalType": "address",
          "name": "",
          "type": "address"
        }
      ],
      "stateMutability": "view",
      "type": "function",
      "constant": true
    },
    {
      "inputs": [],
      "name": "symbol",
      "outputs": [
        {
          "internalType": "string",
          "name": "",
          "type": "string"
        }
      ],
      "stateMutability": "view",
      "type": "function",
      "constant": true
    },
    {
      "inputs": [],
      "name": "totalSupply",
      "outputs": [
        {
          "internalType": "uint256",
          "name": "",
          "type": "uint256"
        }
      ],
      "stateMutability": "view",
      "type": "function",
      "constant": true
    },
    {
      "inputs": [
        {
          "internalType": "address",
          "name": "recipient",
          "type": "address"
        },
        {
          "internalType": "uint256",
          "name": "amount",
          "type": "uint256"
        }
      ],
      "name": "transfer",
      "outputs": [
        {
          "internalType": "bool",
          "name": "",
          "type": "bool"
        }
      ],
      "stateMutability": "nonpayable",
      "type": "function"
    },
    {
      "inputs": [
        {
          "internalType": "address",
          "name": "sender",
          "type": "address"
        },
        {
          "internalType": "address",
          "name": "recipient",
          "type": "address"
        },
        {
          "internalType": "uint256",
          "name": "amount",
          "type": "uint256"
        }
      ],
      "name": "transferFrom",
      "outputs": [
        {
          "internalType": "bool",
          "name": "",
          "type": "bool"
        }
      ],
      "stateMutability": "nonpayable",
      "type": "function"
    },
    {
      "inputs": [
        {
          "internalType": "address",
          "name": "_owner",
          "type": "address"
        }
      ],
      "name": "setOwner",
      "outputs": [],
      "stateMutability": "nonpayable",
      "type": "function"
    },
    {
      "inputs": [
        {
          "internalType": "uint16",
          "name": "eventId",
          "type": "uint16"
        },
        {
          "internalType": "address[]",
          "name": "candidateAddress",
          "type": "address[]"
        }
      ],
      "name": "createEvent",
      "outputs": [],
      "stateMutability": "nonpayable",
      "type": "function"
    },
    {
      "inputs": [
        {
          "internalType": "uint16",
          "name": "eventId",
          "type": "uint16"
        },
        {
          "internalType": "uint256",
          "name": "candidateIndex",
          "type": "uint256"
        }
      ],
      "name": "getCandidate",
      "outputs": [
        {
          "internalType": "address",
          "name": "",
          "type": "address"
        }
      ],
      "stateMutability": "view",
      "type": "function",
      "constant": true
    },
    {
      "inputs": [
        {
          "internalType": "uint16",
          "name": "eventId",
          "type": "uint16"
        },
        {
          "internalType": "uint256",
          "name": "voterIndex",
          "type": "uint256"
        }
      ],
      "name": "getVoter",
      "outputs": [
        {
          "internalType": "address",
          "name": "",
          "type": "address"
        }
      ],
      "stateMutability": "view",
      "type": "function",
      "constant": true
    },
    {
      "inputs": [
        {
          "internalType": "uint16",
          "name": "eventId",
          "type": "uint16"
        },
        {
          "internalType": "address",
          "name": "voter_",
          "type": "address"
        },
        {
          "internalType": "address",
          "name": "candidate_",
          "type": "address"
        }
      ],
      "name": "getVoteToken",
      "outputs": [
        {
          "internalType": "uint256",
          "name": "",
          "type": "uint256"
        }
      ],
      "stateMutability": "view",
      "type": "function",
      "constant": true
    },
    {
      "inputs": [
        {
          "internalType": "uint16",
          "name": "eventId",
          "type": "uint16"
        },
        {
          "internalType": "address",
          "name": "address_",
          "type": "address"
        },
        {
          "internalType": "uint256",
          "name": "target",
          "type": "uint256"
        }
      ],
      "name": "getToken",
      "outputs": [
        {
          "internalType": "uint256",
          "name": "",
          "type": "uint256"
        }
      ],
      "stateMutability": "view",
      "type": "function",
      "constant": true
    },
    {
      "inputs": [
        {
          "internalType": "uint16",
          "name": "eventId",
          "type": "uint16"
        }
      ],
      "name": "startVoting",
      "outputs": [],
      "stateMutability": "nonpayable",
      "type": "function"
    },
    {
      "inputs": [
        {
          "internalType": "uint16",
          "name": "eventId",
          "type": "uint16"
        }
      ],
      "name": "stopVoting",
      "outputs": [],
      "stateMutability": "nonpayable",
      "type": "function"
    },
    {
      "inputs": [
        {
          "internalType": "uint16",
          "name": "eventId",
          "type": "uint16"
        }
      ],
      "name": "setRefundable",
      "outputs": [],
      "stateMutability": "nonpayable",
      "type": "function"
    },
    {
      "inputs": [
        {
          "internalType": "uint16",
          "name": "eventId",
          "type": "uint16"
        },
        {
          "internalType": "address",
          "name": "candidate",
          "type": "address"
        },
        {
          "internalType": "uint256",
          "name": "token",
          "type": "uint256"
        }
      ],
      "name": "voting",
      "outputs": [],
      "stateMutability": "nonpayable",
      "type": "function"
    },
    {
      "inputs": [
        {
          "internalType": "uint16",
          "name": "eventId",
          "type": "uint16"
        },
        {
          "internalType": "uint256",
          "name": "token",
          "type": "uint256"
        }
      ],
      "name": "fundReward",
      "outputs": [
        {
          "internalType": "uint256",
          "name": "",
          "type": "uint256"
        }
      ],
      "stateMutability": "nonpayable",
      "type": "function"
    },
    {
      "inputs": [
        {
          "internalType": "uint16",
          "name": "eventId",
          "type": "uint16"
        }
      ],
      "name": "withdraw",
      "outputs": [],
      "stateMutability": "nonpayable",
      "type": "function"
    }
  ],
  "bytecode": "0x60806040523480156200001157600080fd5b506040516200492538038062004925833981810160405260208110156200003757600080fd5b81019080805190602001909291905050506040518060400160405280600981526020017f4a445020746f6b656e00000000000000000000000000000000000000000000008152506040518060400160405280600381526020017f4a445000000000000000000000000000000000000000000000000000000000008152508160039080519060200190620000cc92919062000521565b508060049080519060200190620000e592919062000521565b506012600560006101000a81548160ff021916908360ff1602179055506200013c620001166200016860201b60201c565b600560009054906101000a900460ff1660ff16600a0a612710026200017060201b60201c565b505062000150600a6200034e60201b60201c565b62000161816200036c60201b60201c565b50620005c7565b600033905090565b600073ffffffffffffffffffffffffffffffffffffffff168273ffffffffffffffffffffffffffffffffffffffff16141562000214576040517f08c379a000000000000000000000000000000000000000000000000000000000815260040180806020018281038252601f8152602001807f45524332303a206d696e7420746f20746865207a65726f20616464726573730081525060200191505060405180910390fd5b62000228600083836200047c60201b60201c565b62000244816002546200048160201b620023d71790919060201c565b600281905550620002a2816000808573ffffffffffffffffffffffffffffffffffffffff1673ffffffffffffffffffffffffffffffffffffffff168152602001908152602001600020546200048160201b620023d71790919060201c565b6000808473ffffffffffffffffffffffffffffffffffffffff1673ffffffffffffffffffffffffffffffffffffffff168152602001908152602001600020819055508173ffffffffffffffffffffffffffffffffffffffff16600073ffffffffffffffffffffffffffffffffffffffff167fddf252ad1be2c89b69c2b068fc378daa952ba7f163c4a11628f55a4df523b3ef836040518082815260200191505060405180910390a35050565b80600560006101000a81548160ff021916908360ff16021790555050565b600073ffffffffffffffffffffffffffffffffffffffff168173ffffffffffffffffffffffffffffffffffffffff161415620003e95733600560016101000a81548173ffffffffffffffffffffffffffffffffffffffff021916908373ffffffffffffffffffffffffffffffffffffffff1602179055506200042b565b80600560016101000a81548173ffffffffffffffffffffffffffffffffffffffff021916908373ffffffffffffffffffffffffffffffffffffffff1602179055505b62000479600560019054906101000a900473ffffffffffffffffffffffffffffffffffffffff16620004626200050a60201b60201c565b60ff16600a0a620f4240026200017060201b60201c565b50565b505050565b60008082840190508381101562000500576040517f08c379a000000000000000000000000000000000000000000000000000000000815260040180806020018281038252601b8152602001807f536166654d6174683a206164646974696f6e206f766572666c6f77000000000081525060200191505060405180910390fd5b8091505092915050565b6000600560009054906101000a900460ff16905090565b828054600181600116156101000203166002900490600052602060002090601f016020900481019282601f106200056457805160ff191683800117855562000595565b8280016001018555821562000595579182015b828111156200059457825182559160200191906001019062000577565b5b509050620005a49190620005a8565b5090565b5b80821115620005c3576000816000905550600101620005a9565b5090565b61434e80620005d76000396000f3fe608060405234801561001057600080fd5b50600436106101725760003560e01c8063493280d2116100de57806395d89b4111610097578063a9059cbb11610071578063a9059cbb146108e8578063cc1d20a31461094c578063dd62ed3e146109a8578063ddeb7ad614610a2057610172565b806395d89b41146107cf5780639652c2d314610852578063a457c2d71461088457610172565b8063493280d2146105a957806364fa189e1461062557806370a08231146106ab57806376185e98146107035780638661cdfe146107355780638da5cb5b1461079b57610172565b806320db64e41161013057806320db64e41461034257806323b872dd14610408578063313ce5671461048c57806339509351146104ad5780633d97283914610511578063467ec34b1461054357610172565b8062e1e6091461017757806301bad603146101a957806306fdde03146101f9578063095ea7b31461027c57806313af4035146102e057806318160ddd14610324575b600080fd5b6101a76004803603602081101561018d57600080fd5b81019080803561ffff169060200190929190505050610a90565b005b6101e3600480360360408110156101bf57600080fd5b81019080803561ffff16906020019092919080359060200190929190505050610bac565b6040518082815260200191505060405180910390f35b610201610df2565b6040518080602001828103825283818151815260200191508051906020019080838360005b83811015610241578082015181840152602081019050610226565b50505050905090810190601f16801561026e5780820380516001836020036101000a031916815260200191505b509250505060405180910390f35b6102c86004803603604081101561029257600080fd5b81019080803573ffffffffffffffffffffffffffffffffffffffff16906020019092919080359060200190929190505050610e94565b60405180821515815260200191505060405180910390f35b610322600480360360208110156102f657600080fd5b81019080803573ffffffffffffffffffffffffffffffffffffffff169060200190929190505050610eb2565b005b61032c610f50565b6040518082815260200191505060405180910390f35b6104066004803603604081101561035857600080fd5b81019080803561ffff1690602001909291908035906020019064010000000081111561038357600080fd5b82018360208201111561039557600080fd5b803590602001918460208302840111640100000000831117156103b757600080fd5b919080806020026020016040519081016040528093929190818152602001838360200280828437600081840152601f19601f820116905080830192505050505050509192919290505050610f5a565b005b6104746004803603606081101561041e57600080fd5b81019080803573ffffffffffffffffffffffffffffffffffffffff169060200190929190803573ffffffffffffffffffffffffffffffffffffffff169060200190929190803590602001909291905050506111fe565b60405180821515815260200191505060405180910390f35b6104946112d7565b604051808260ff16815260200191505060405180910390f35b6104f9600480360360408110156104c357600080fd5b81019080803573ffffffffffffffffffffffffffffffffffffffff169060200190929190803590602001909291905050506112ee565b60405180821515815260200191505060405180910390f35b6105416004803603602081101561052757600080fd5b81019080803561ffff1690602001909291905050506113a1565b005b61057d6004803603604081101561055957600080fd5b81019080803561ffff169060200190929190803590602001909291905050506115a3565b604051808273ffffffffffffffffffffffffffffffffffffffff16815260200191505060405180910390f35b6105d5600480360360208110156105bf57600080fd5b8101908080359060200190929190505050611663565b604051808561ffff1681526020018473ffffffffffffffffffffffffffffffffffffffff16815260200183815260200182600381111561061157fe5b815260200194505050505060405180910390f35b6106956004803603606081101561063b57600080fd5b81019080803561ffff169060200190929190803573ffffffffffffffffffffffffffffffffffffffff169060200190929190803573ffffffffffffffffffffffffffffffffffffffff1690602001909291905050506116db565b6040518082815260200191505060405180910390f35b6106ed600480360360208110156106c157600080fd5b81019080803573ffffffffffffffffffffffffffffffffffffffff1690602001909291905050506117b4565b6040518082815260200191505060405180910390f35b6107336004803603602081101561071957600080fd5b81019080803561ffff1690602001909291905050506117fc565b005b61076f6004803603604081101561074b57600080fd5b81019080803561ffff16906020019092919080359060200190929190505050611a32565b604051808273ffffffffffffffffffffffffffffffffffffffff16815260200191505060405180910390f35b6107a3611af2565b604051808273ffffffffffffffffffffffffffffffffffffffff16815260200191505060405180910390f35b6107d7611b18565b6040518080602001828103825283818151815260200191508051906020019080838360005b838110156108175780820151818401526020810190506107fc565b50505050905090810190601f1680156108445780820380516001836020036101000a031916815260200191505b509250505060405180910390f35b6108826004803603602081101561086857600080fd5b81019080803561ffff169060200190929190505050611bba565b005b6108d06004803603604081101561089a57600080fd5b81019080803573ffffffffffffffffffffffffffffffffffffffff16906020019092919080359060200190929190505050611ce8565b60405180821515815260200191505060405180910390f35b610934600480360360408110156108fe57600080fd5b81019080803573ffffffffffffffffffffffffffffffffffffffff16906020019092919080359060200190929190505050611db5565b60405180821515815260200191505060405180910390f35b6109a66004803603606081101561096257600080fd5b81019080803561ffff169060200190929190803573ffffffffffffffffffffffffffffffffffffffff16906020019092919080359060200190929190505050611dd3565b005b610a0a600480360360408110156109be57600080fd5b81019080803573ffffffffffffffffffffffffffffffffffffffff169060200190929190803573ffffffffffffffffffffffffffffffffffffffff1690602001909291905050506121b6565b6040518082815260200191505060405180910390f35b610a7a60048036036060811015610a3657600080fd5b81019080803561ffff169060200190929190803573ffffffffffffffffffffffffffffffffffffffff1690602001909291908035906020019092919050505061223d565b6040518082815260200191505060405180910390f35b600560019054906101000a900473ffffffffffffffffffffffffffffffffffffffff1673ffffffffffffffffffffffffffffffffffffffff163373ffffffffffffffffffffffffffffffffffffffff1614610aea57600080fd5b600080610af68361245f565b809250819350505081610b0857600080fd5b6006805490508110610b1957600080fd5b60016003811115610b2657fe5b60068281548110610b3357fe5b90600052602060002090600b0201600a0160009054906101000a900460ff166003811115610b5d57fe5b14610b6757600080fd5b600260068281548110610b7657fe5b90600052602060002090600b0201600a0160006101000a81548160ff02191690836003811115610ba257fe5b0217905550505050565b6000600560019054906101000a900473ffffffffffffffffffffffffffffffffffffffff1673ffffffffffffffffffffffffffffffffffffffff163373ffffffffffffffffffffffffffffffffffffffff1614610c0857600080fd5b600080610c148561245f565b809250819350505081610c2657600080fd5b6006805490508110610c3757600080fd5b60006003811115610c4457fe5b60068281548110610c5157fe5b90600052602060002090600b0201600a0160009054906101000a900460ff166003811115610c7b57fe5b1480610cc8575060016003811115610c8f57fe5b60068281548110610c9c57fe5b90600052602060002090600b0201600a0160009054906101000a900460ff166003811115610cc657fe5b145b610cd157600080fd5b600060068281548110610ce057fe5b90600052602060002090600b0201600501549050610d3c60068381548110610d0457fe5b90600052602060002090600b020160040160009054906101000a900473ffffffffffffffffffffffffffffffffffffffff16866124d6565b610d6d8560068481548110610d4d57fe5b90600052602060002090600b0201600501546123d790919063ffffffff16565b60068381548110610d7a57fe5b90600052602060002090600b020160050181905550610da285826123d790919063ffffffff16565b60068381548110610daf57fe5b90600052602060002090600b02016005015414610dc857fe5b60068281548110610dd557fe5b90600052602060002090600b020160050154935050505092915050565b606060038054600181600116156101000203166002900480601f016020809104026020016040519081016040528092919081815260200182805460018160011615610100020316600290048015610e8a5780601f10610e5f57610100808354040283529160200191610e8a565b820191906000526020600020905b815481529060010190602001808311610e6d57829003601f168201915b5050505050905090565b6000610ea8610ea16124e5565b84846124ed565b6001905092915050565b600560019054906101000a900473ffffffffffffffffffffffffffffffffffffffff1673ffffffffffffffffffffffffffffffffffffffff163373ffffffffffffffffffffffffffffffffffffffff1614610f0c57600080fd5b80600560016101000a81548173ffffffffffffffffffffffffffffffffffffffff021916908373ffffffffffffffffffffffffffffffffffffffff16021790555050565b6000600254905090565b600560019054906101000a900473ffffffffffffffffffffffffffffffffffffffff1673ffffffffffffffffffffffffffffffffffffffff163373ffffffffffffffffffffffffffffffffffffffff1614610fb457600080fd5b60006006805490509050600080610fca8561245f565b80925081935050508115610fdd57600080fd5b60066040518060e001604052808761ffff168152602001868152602001600067ffffffffffffffff8111801561101257600080fd5b506040519080825280602002602001820160405280156110415781602001602082028036833780820191505090505b5081526020013373ffffffffffffffffffffffffffffffffffffffff16815260200160008152602001600067ffffffffffffffff8111801561108257600080fd5b506040519080825280602002602001820160405280156110b15781602001602082028036833780820191505090505b508152602001600060038111156110c457fe5b81525090806001815401808255809150506001900390600052602060002090600b020160009091909190915060008201518160000160006101000a81548161ffff021916908361ffff160217905550602082015181600101908051906020019061112f929190614131565b50604082015181600201908051906020019061114c929190614131565b5060608201518160040160006101000a81548173ffffffffffffffffffffffffffffffffffffffff021916908373ffffffffffffffffffffffffffffffffffffffff1602179055506080820151816005015560a08201518160060190805190602001906111ba929190614131565b5060c082015181600a0160006101000a81548160ff021916908360038111156111df57fe5b0217905550505060018301600680549050146111f757fe5b5050505050565b600061120b8484846126e4565b6112cc846112176124e5565b6112c78560405180606001604052806028815260200161428360289139600160008b73ffffffffffffffffffffffffffffffffffffffff1673ffffffffffffffffffffffffffffffffffffffff168152602001908152602001600020600061127d6124e5565b73ffffffffffffffffffffffffffffffffffffffff1673ffffffffffffffffffffffffffffffffffffffff168152602001908152602001600020546129a59092919063ffffffff16565b6124ed565b600190509392505050565b6000600560009054906101000a900460ff16905090565b60006113976112fb6124e5565b84611392856001600061130c6124e5565b73ffffffffffffffffffffffffffffffffffffffff1673ffffffffffffffffffffffffffffffffffffffff16815260200190815260200160002060008973ffffffffffffffffffffffffffffffffffffffff1673ffffffffffffffffffffffffffffffffffffffff168152602001908152602001600020546123d790919063ffffffff16565b6124ed565b6001905092915050565b6000806113ad8361245f565b8092508193505050816113bf57600080fd5b60068054905081106113d057600080fd5b6003808111156113dc57fe5b600682815481106113e957fe5b90600052602060002090600b0201600a0160009054906101000a900460ff16600381111561141357fe5b1461141d57600080fd5b60006006828154811061142c57fe5b90600052602060002090600b020160090160006114476124e5565b73ffffffffffffffffffffffffffffffffffffffff1673ffffffffffffffffffffffffffffffffffffffff1681526020019081526020016000205490506000811161149157600080fd5b6000600683815481106114a057fe5b90600052602060002090600b020160090160006114bb6124e5565b73ffffffffffffffffffffffffffffffffffffffff1673ffffffffffffffffffffffffffffffffffffffff1681526020019081526020016000208190555061152a816006848154811061150a57fe5b90600052602060002090600b020160050154612a6590919063ffffffff16565b6006838154811061153757fe5b90600052602060002090600b02016005018190555061159c6006838154811061155c57fe5b90600052602060002090600b020160040160009054906101000a900473ffffffffffffffffffffffffffffffffffffffff166115966124e5565b836111fe565b5050505050565b6000806000905060006115b58561245f565b8092508193505050816115c757600080fd5b60068054905081106115d857600080fd5b83600682815481106115e657fe5b90600052602060002090600b0201600101805490501161160557600080fd5b6006818154811061161257fe5b90600052602060002090600b0201600101848154811061162e57fe5b9060005260206000200160009054906101000a900473ffffffffffffffffffffffffffffffffffffffff169250505092915050565b6006818154811061167057fe5b90600052602060002090600b02016000915090508060000160009054906101000a900461ffff16908060040160009054906101000a900473ffffffffffffffffffffffffffffffffffffffff169080600501549080600a0160009054906101000a900460ff16905084565b6000806000905060006116ed8661245f565b8092508193505050816116ff57600080fd5b600680549050811061171057600080fd5b6006818154811061171d57fe5b90600052602060002090600b020160030160008673ffffffffffffffffffffffffffffffffffffffff1673ffffffffffffffffffffffffffffffffffffffff16815260200190815260200160002060008573ffffffffffffffffffffffffffffffffffffffff1673ffffffffffffffffffffffffffffffffffffffff16815260200190815260200160002054925050509392505050565b60008060008373ffffffffffffffffffffffffffffffffffffffff1673ffffffffffffffffffffffffffffffffffffffff168152602001908152602001600020549050919050565b600560019054906101000a900473ffffffffffffffffffffffffffffffffffffffff1673ffffffffffffffffffffffffffffffffffffffff163373ffffffffffffffffffffffffffffffffffffffff161461185657600080fd5b6000806118628361245f565b80925081935050508161187457600080fd5b600680549050811061188257fe5b6000600381111561188f57fe5b6006828154811061189c57fe5b90600052602060002090600b0201600a0160009054906101000a900460ff1660038111156118c657fe5b146118d057600080fd5b610100600682815481106118e057fe5b90600052602060002090600b020160010180549050106118ff57600080fd5b60005b6006828154811061190f57fe5b90600052602060002090600b0201600101805490508110156119ec5760006006838154811061193a57fe5b90600052602060002090600b020160070160006006858154811061195a57fe5b90600052602060002090600b0201600101848154811061197657fe5b9060005260206000200160009054906101000a900473ffffffffffffffffffffffffffffffffffffffff1673ffffffffffffffffffffffffffffffffffffffff1673ffffffffffffffffffffffffffffffffffffffff168152602001908152602001600020819055508080600101915050611902565b506001600682815481106119fc57fe5b90600052602060002090600b0201600a0160006101000a81548160ff02191690836003811115611a2857fe5b0217905550505050565b600080600090506000611a448561245f565b809250819350505081611a5657600080fd5b6006805490508110611a6757600080fd5b8360068281548110611a7557fe5b90600052602060002090600b02016002018054905011611a9457600080fd5b60068181548110611aa157fe5b90600052602060002090600b02016002018481548110611abd57fe5b9060005260206000200160009054906101000a900473ffffffffffffffffffffffffffffffffffffffff169250505092915050565b600560019054906101000a900473ffffffffffffffffffffffffffffffffffffffff1681565b606060048054600181600116156101000203166002900480601f016020809104026020016040519081016040528092919081815260200182805460018160011615610100020316600290048015611bb05780601f10611b8557610100808354040283529160200191611bb0565b820191906000526020600020905b815481529060010190602001808311611b9357829003601f168201915b5050505050905090565b600560019054906101000a900473ffffffffffffffffffffffffffffffffffffffff1673ffffffffffffffffffffffffffffffffffffffff163373ffffffffffffffffffffffffffffffffffffffff1614611c1457600080fd5b600080611c208361245f565b809250819350505081611c3257600080fd5b6006805490508110611c4357600080fd5b60026003811115611c5057fe5b60068281548110611c5d57fe5b90600052602060002090600b0201600a0160009054906101000a900460ff166003811115611c8757fe5b14611c9157600080fd5b611c9a81612aaf565b611ca381612f87565b600360068281548110611cb257fe5b90600052602060002090600b0201600a0160006101000a81548160ff02191690836003811115611cde57fe5b0217905550505050565b6000611dab611cf56124e5565b84611da6856040518060600160405280602581526020016142f46025913960016000611d1f6124e5565b73ffffffffffffffffffffffffffffffffffffffff1673ffffffffffffffffffffffffffffffffffffffff16815260200190815260200160002060008a73ffffffffffffffffffffffffffffffffffffffff1673ffffffffffffffffffffffffffffffffffffffff168152602001908152602001600020546129a59092919063ffffffff16565b6124ed565b6001905092915050565b6000611dc9611dc26124e5565b84846126e4565b6001905092915050565b600080611ddf8561245f565b809250819350505081611df157600080fd5b6006805490508110611e0257600080fd5b60016003811115611e0f57fe5b60068281548110611e1c57fe5b90600052602060002090600b0201600a0160009054906101000a900460ff166003811115611e4657fe5b14611e5057600080fd5b60011515611e5e8286613b92565b151514611e6a57600080fd5b611eb260068281548110611e7a57fe5b90600052602060002090600b020160040160009054906101000a900473ffffffffffffffffffffffffffffffffffffffff16846124d6565b60001515611ec08233613c6d565b15151415611f485760068181548110611ed557fe5b90600052602060002090600b0201600201339080600181540180825580915050600190039060005260206000200160009091909190916101000a81548173ffffffffffffffffffffffffffffffffffffffff021916908373ffffffffffffffffffffffffffffffffffffffff1602179055505b611ff38360068381548110611f5957fe5b90600052602060002090600b020160030160003373ffffffffffffffffffffffffffffffffffffffff1673ffffffffffffffffffffffffffffffffffffffff16815260200190815260200160002060008773ffffffffffffffffffffffffffffffffffffffff1673ffffffffffffffffffffffffffffffffffffffff168152602001908152602001600020546123d790919063ffffffff16565b6006828154811061200057fe5b90600052602060002090600b020160030160003373ffffffffffffffffffffffffffffffffffffffff1673ffffffffffffffffffffffffffffffffffffffff16815260200190815260200160002060008673ffffffffffffffffffffffffffffffffffffffff1673ffffffffffffffffffffffffffffffffffffffff168152602001908152602001600020819055506120fd83600683815481106120a057fe5b90600052602060002090600b020160070160008773ffffffffffffffffffffffffffffffffffffffff1673ffffffffffffffffffffffffffffffffffffffff168152602001908152602001600020546123d790919063ffffffff16565b6006828154811061210a57fe5b90600052602060002090600b020160070160008673ffffffffffffffffffffffffffffffffffffffff1673ffffffffffffffffffffffffffffffffffffffff1681526020019081526020016000208190555061218d836006838154811061216d57fe5b90600052602060002090600b0201600501546123d790919063ffffffff16565b6006828154811061219a57fe5b90600052602060002090600b0201600501819055505050505050565b6000600160008473ffffffffffffffffffffffffffffffffffffffff1673ffffffffffffffffffffffffffffffffffffffff16815260200190815260200160002060008373ffffffffffffffffffffffffffffffffffffffff1673ffffffffffffffffffffffffffffffffffffffff16815260200190815260200160002054905092915050565b60008060009050600061224f8661245f565b80925081935050508161226157600080fd5b600680549050811061227257600080fd5b6003841061227f57600080fd5b60008414156122ed576006818154811061229557fe5b90600052602060002090600b020160070160008673ffffffffffffffffffffffffffffffffffffffff1673ffffffffffffffffffffffffffffffffffffffff16815260200190815260200160002054925050506123d0565b600184141561235b576006818154811061230357fe5b90600052602060002090600b020160080160008673ffffffffffffffffffffffffffffffffffffffff1673ffffffffffffffffffffffffffffffffffffffff16815260200190815260200160002054925050506123d0565b60028414156123c9576006818154811061237157fe5b90600052602060002090600b020160090160008673ffffffffffffffffffffffffffffffffffffffff1673ffffffffffffffffffffffffffffffffffffffff16815260200190815260200160002054925050506123d0565b6000925050505b9392505050565b600080828401905083811015612455576040517f08c379a000000000000000000000000000000000000000000000000000000000815260040180806020018281038252601b8152602001807f536166654d6174683a206164646974696f6e206f766572666c6f77000000000081525060200191505060405180910390fd5b8091505092915050565b60008060005b6006805490508110156124c8578361ffff166006828154811061248457fe5b90600052602060002090600b020160000160009054906101000a900461ffff1661ffff1614156124bb5760018192509250506124d1565b8080600101915050612465565b50600080915091505b915091565b6124e08282611db5565b505050565b600033905090565b600073ffffffffffffffffffffffffffffffffffffffff168373ffffffffffffffffffffffffffffffffffffffff161415612573576040517f08c379a00000000000000000000000000000000000000000000000000000000081526004018080602001828103825260248152602001806142d06024913960400191505060405180910390fd5b600073ffffffffffffffffffffffffffffffffffffffff168273ffffffffffffffffffffffffffffffffffffffff1614156125f9576040517f08c379a000000000000000000000000000000000000000000000000000000000815260040180806020018281038252602281526020018061421a6022913960400191505060405180910390fd5b80600160008573ffffffffffffffffffffffffffffffffffffffff1673ffffffffffffffffffffffffffffffffffffffff16815260200190815260200160002060008473ffffffffffffffffffffffffffffffffffffffff1673ffffffffffffffffffffffffffffffffffffffff168152602001908152602001600020819055508173ffffffffffffffffffffffffffffffffffffffff168373ffffffffffffffffffffffffffffffffffffffff167f8c5be1e5ebec7d5bd14f71427d1e84f3dd0314c0f7b2291e5b200ac8c7c3b925836040518082815260200191505060405180910390a3505050565b600073ffffffffffffffffffffffffffffffffffffffff168373ffffffffffffffffffffffffffffffffffffffff16141561276a576040517f08c379a00000000000000000000000000000000000000000000000000000000081526004018080602001828103825260258152602001806142ab6025913960400191505060405180910390fd5b600073ffffffffffffffffffffffffffffffffffffffff168273ffffffffffffffffffffffffffffffffffffffff1614156127f0576040517f08c379a00000000000000000000000000000000000000000000000000000000081526004018080602001828103825260238152602001806141f76023913960400191505060405180910390fd5b6127fb838383613d48565b6128668160405180606001604052806026815260200161423c602691396000808773ffffffffffffffffffffffffffffffffffffffff1673ffffffffffffffffffffffffffffffffffffffff168152602001908152602001600020546129a59092919063ffffffff16565b6000808573ffffffffffffffffffffffffffffffffffffffff1673ffffffffffffffffffffffffffffffffffffffff168152602001908152602001600020819055506128f9816000808573ffffffffffffffffffffffffffffffffffffffff1673ffffffffffffffffffffffffffffffffffffffff168152602001908152602001600020546123d790919063ffffffff16565b6000808473ffffffffffffffffffffffffffffffffffffffff1673ffffffffffffffffffffffffffffffffffffffff168152602001908152602001600020819055508173ffffffffffffffffffffffffffffffffffffffff168373ffffffffffffffffffffffffffffffffffffffff167fddf252ad1be2c89b69c2b068fc378daa952ba7f163c4a11628f55a4df523b3ef836040518082815260200191505060405180910390a3505050565b6000838311158290612a52576040517f08c379a00000000000000000000000000000000000000000000000000000000081526004018080602001828103825283818151815260200191508051906020019080838360005b83811015612a175780820151818401526020810190506129fc565b50505050905090810190601f168015612a445780820380516001836020036101000a031916815260200191505b509250505060405180910390fd5b5060008385039050809150509392505050565b6000612aa783836040518060400160405280601e81526020017f536166654d6174683a207375627472616374696f6e206f766572666c6f7700008152506129a5565b905092915050565b60026003811115612abc57fe5b60068281548110612ac957fe5b90600052602060002090600b0201600a0160009054906101000a900460ff166003811115612af357fe5b14612afa57fe5b606060068281548110612b0957fe5b90600052602060002090600b0201600101805480602002602001604051908101604052809291908181526020018280548015612b9a57602002820191906000526020600020905b8160009054906101000a900473ffffffffffffffffffffffffffffffffffffffff1673ffffffffffffffffffffffffffffffffffffffff1681526020019060010190808311612b50575b505050505090506000815111612baf57600080fd5b600081600081518110612bbe57fe5b60200260200101519050600060068481548110612bd757fe5b90600052602060002090600b020160070160008373ffffffffffffffffffffffffffffffffffffffff1673ffffffffffffffffffffffffffffffffffffffff1681526020019081526020016000205490506000600190505b8351811015612d43578160068681548110612c4657fe5b90600052602060002090600b02016007016000868481518110612c6557fe5b602002602001015173ffffffffffffffffffffffffffffffffffffffff1673ffffffffffffffffffffffffffffffffffffffff168152602001908152602001600020541115612d3657838181518110612cba57fe5b6020026020010151925060068581548110612cd157fe5b90600052602060002090600b02016007016000858381518110612cf057fe5b602002602001015173ffffffffffffffffffffffffffffffffffffffff1673ffffffffffffffffffffffffffffffffffffffff1681526020019081526020016000205491505b8080600101915050612c2f565b5060068481548110612d5157fe5b90600052602060002090600b0201600601829080600181540180825580915050600190039060005260206000200160009091909190916101000a81548173ffffffffffffffffffffffffffffffffffffffff021916908373ffffffffffffffffffffffffffffffffffffffff16021790555060005b8351811015612f80578160068681548110612ddd57fe5b90600052602060002090600b02016007016000868481518110612dfc57fe5b602002602001015173ffffffffffffffffffffffffffffffffffffffff1673ffffffffffffffffffffffffffffffffffffffff168152602001908152602001600020541415612f735760068581548110612e5257fe5b90600052602060002090600b0201600601600081548110612e6f57fe5b9060005260206000200160009054906101000a900473ffffffffffffffffffffffffffffffffffffffff1673ffffffffffffffffffffffffffffffffffffffff16848281518110612ebc57fe5b602002602001015173ffffffffffffffffffffffffffffffffffffffff1614612f725760068581548110612eec57fe5b90600052602060002090600b0201600601848281518110612f0957fe5b60200260200101519080600181540180825580915050600190039060005260206000200160009091909190916101000a81548173ffffffffffffffffffffffffffffffffffffffff021916908373ffffffffffffffffffffffffffffffffffffffff1602179055505b5b8080600101915050612dc6565b5050505050565b60026003811115612f9457fe5b60068281548110612fa157fe5b90600052602060002090600b0201600a0160009054906101000a900460ff166003811115612fcb57fe5b14612fd257fe5b600060068281548110612fe157fe5b90600052602060002090600b0201600501549050600061301e600a613010600785613d4d90919063ffffffff16565b613dd390919063ffffffff16565b90506000613049600a61303b600386613d4d90919063ffffffff16565b613dd390919063ffffffff16565b905061305e81836123d790919063ffffffff16565b83101561306757fe5b6000805b6006868154811061307857fe5b90600052602060002090600b02016001018054905081101561316457613155600687815481106130a457fe5b90600052602060002090600b02016007016000600689815481106130c457fe5b90600052602060002090600b020160010184815481106130e057fe5b9060005260206000200160009054906101000a900473ffffffffffffffffffffffffffffffffffffffff1673ffffffffffffffffffffffffffffffffffffffff1673ffffffffffffffffffffffffffffffffffffffff16815260200190815260200160002054836123d790919063ffffffff16565b9150808060010191505061306b565b5060005b6006868154811061317557fe5b90600052602060002090600b0201600101805490508110156134375761326c6132678361325960068a815481106131a857fe5b90600052602060002090600b0201600701600060068c815481106131c857fe5b90600052602060002090600b020160010187815481106131e457fe5b9060005260206000200160009054906101000a900473ffffffffffffffffffffffffffffffffffffffff1673ffffffffffffffffffffffffffffffffffffffff1673ffffffffffffffffffffffffffffffffffffffff1681526020019081526020016000205488613d4d90919063ffffffff16565b613dd390919063ffffffff16565b613e1d565b6006878154811061327957fe5b90600052602060002090600b020160090160006006898154811061329957fe5b90600052602060002090600b020160010184815481106132b557fe5b9060005260206000200160009054906101000a900473ffffffffffffffffffffffffffffffffffffffff1673ffffffffffffffffffffffffffffffffffffffff1673ffffffffffffffffffffffffffffffffffffffff168152602001908152602001600020819055506134296006878154811061332e57fe5b90600052602060002090600b0201600101828154811061334a57fe5b9060005260206000200160009054906101000a900473ffffffffffffffffffffffffffffffffffffffff166006888154811061338257fe5b90600052602060002090600b0201600901600060068a815481106133a257fe5b90600052602060002090600b020160010185815481106133be57fe5b9060005260206000200160009054906101000a900473ffffffffffffffffffffffffffffffffffffffff1673ffffffffffffffffffffffffffffffffffffffff1673ffffffffffffffffffffffffffffffffffffffff16815260200190815260200160002054610e94565b508080600101915050613168565b5060008060005b6006888154811061344b57fe5b90600052602060002090600b0201600201805490508110156138b55760005b6006898154811061347757fe5b90600052602060002090600b0201600101805490508110156137e45760009250600689815481106134a457fe5b90600052602060002090600b0201600301600060068b815481106134c457fe5b90600052602060002090600b020160020184815481106134e057fe5b9060005260206000200160009054906101000a900473ffffffffffffffffffffffffffffffffffffffff1673ffffffffffffffffffffffffffffffffffffffff1673ffffffffffffffffffffffffffffffffffffffff168152602001908152602001600020600060068b8154811061355457fe5b90600052602060002090600b0201600101838154811061357057fe5b9060005260206000200160009054906101000a900473ffffffffffffffffffffffffffffffffffffffff1673ffffffffffffffffffffffffffffffffffffffff1673ffffffffffffffffffffffffffffffffffffffff1681526020019081526020016000205492506136358960068b815481106135e957fe5b90600052602060002090600b0201600101838154811061360557fe5b9060005260206000200160009054906101000a900473ffffffffffffffffffffffffffffffffffffffff16613e85565b15613664576136616002613653600386613d4d90919063ffffffff16565b613dd390919063ffffffff16565b92505b6137258360068b8154811061367557fe5b90600052602060002090600b0201600801600060068d8154811061369557fe5b90600052602060002090600b020160020186815481106136b157fe5b9060005260206000200160009054906101000a900473ffffffffffffffffffffffffffffffffffffffff1673ffffffffffffffffffffffffffffffffffffffff1673ffffffffffffffffffffffffffffffffffffffff168152602001908152602001600020546123d790919063ffffffff16565b60068a8154811061373257fe5b90600052602060002090600b0201600801600060068c8154811061375257fe5b90600052602060002090600b0201600201858154811061376e57fe5b9060005260206000200160009054906101000a900473ffffffffffffffffffffffffffffffffffffffff1673ffffffffffffffffffffffffffffffffffffffff1673ffffffffffffffffffffffffffffffffffffffff16815260200190815260200160002081905550808060010191505061346a565b506138a6600689815481106137f557fe5b90600052602060002090600b0201600801600060068b8154811061381557fe5b90600052602060002090600b0201600201848154811061383157fe5b9060005260206000200160009054906101000a900473ffffffffffffffffffffffffffffffffffffffff1673ffffffffffffffffffffffffffffffffffffffff1673ffffffffffffffffffffffffffffffffffffffff16815260200190815260200160002054846123d790919063ffffffff16565b9250808060010191505061343e565b5060005b600688815481106138c657fe5b90600052602060002090600b020160020180549050811015613b88576139bd6139b8846139aa60068c815481106138f957fe5b90600052602060002090600b0201600801600060068e8154811061391957fe5b90600052602060002090600b0201600201878154811061393557fe5b9060005260206000200160009054906101000a900473ffffffffffffffffffffffffffffffffffffffff1673ffffffffffffffffffffffffffffffffffffffff1673ffffffffffffffffffffffffffffffffffffffff1681526020019081526020016000205489613d4d90919063ffffffff16565b613dd390919063ffffffff16565b613e1d565b600689815481106139ca57fe5b90600052602060002090600b0201600901600060068b815481106139ea57fe5b90600052602060002090600b02016002018481548110613a0657fe5b9060005260206000200160009054906101000a900473ffffffffffffffffffffffffffffffffffffffff1673ffffffffffffffffffffffffffffffffffffffff1673ffffffffffffffffffffffffffffffffffffffff16815260200190815260200160002081905550613b7a60068981548110613a7f57fe5b90600052602060002090600b02016002018281548110613a9b57fe5b9060005260206000200160009054906101000a900473ffffffffffffffffffffffffffffffffffffffff1660068a81548110613ad357fe5b90600052602060002090600b0201600901600060068c81548110613af357fe5b90600052602060002090600b02016002018581548110613b0f57fe5b9060005260206000200160009054906101000a900473ffffffffffffffffffffffffffffffffffffffff1673ffffffffffffffffffffffffffffffffffffffff1673ffffffffffffffffffffffffffffffffffffffff16815260200190815260200160002054610e94565b5080806001019150506138b9565b5050505050505050565b600080600090505b60068481548110613ba757fe5b90600052602060002090600b020160010180549050811015613c61578273ffffffffffffffffffffffffffffffffffffffff1660068581548110613be757fe5b90600052602060002090600b02016001018281548110613c0357fe5b9060005260206000200160009054906101000a900473ffffffffffffffffffffffffffffffffffffffff1673ffffffffffffffffffffffffffffffffffffffff161415613c54576001915050613c67565b8080600101915050613b9a565b50600090505b92915050565b600080600090505b60068481548110613c8257fe5b90600052602060002090600b020160020180549050811015613d3c578273ffffffffffffffffffffffffffffffffffffffff1660068581548110613cc257fe5b90600052602060002090600b02016002018281548110613cde57fe5b9060005260206000200160009054906101000a900473ffffffffffffffffffffffffffffffffffffffff1673ffffffffffffffffffffffffffffffffffffffff161415613d2f576001915050613d42565b8080600101915050613c75565b50600090505b92915050565b505050565b600080831415613d605760009050613dcd565b6000828402905082848281613d7157fe5b0414613dc8576040517f08c379a00000000000000000000000000000000000000000000000000000000081526004018080602001828103825260218152602001806142626021913960400191505060405180910390fd5b809150505b92915050565b6000613e1583836040518060400160405280601a81526020017f536166654d6174683a206469766973696f6e206279207a65726f000000000000815250613f60565b905092915050565b6000806002613e2a6112d7565b03905060008160ff16118015613e43575060198160ff16105b613e4c57600080fd5b60008160ff16600a0a9050613e7c613e6d828661402690919063ffffffff16565b85612a6590919063ffffffff16565b92505050919050565b600080600090505b60068481548110613e9a57fe5b90600052602060002090600b020160060180549050811015613f54578273ffffffffffffffffffffffffffffffffffffffff1660068581548110613eda57fe5b90600052602060002090600b02016006018281548110613ef657fe5b9060005260206000200160009054906101000a900473ffffffffffffffffffffffffffffffffffffffff1673ffffffffffffffffffffffffffffffffffffffff161415613f47576001915050613f5a565b8080600101915050613e8d565b50600090505b92915050565b6000808311829061400c576040517f08c379a00000000000000000000000000000000000000000000000000000000081526004018080602001828103825283818151815260200191508051906020019080838360005b83811015613fd1578082015181840152602081019050613fb6565b50505050905090810190601f168015613ffe5780820380516001836020036101000a031916815260200191505b509250505060405180910390fd5b50600083858161401857fe5b049050809150509392505050565b600061406883836040518060400160405280601881526020017f536166654d6174683a206d6f64756c6f206279207a65726f0000000000000000815250614070565b905092915050565b600080831415829061411d576040517f08c379a00000000000000000000000000000000000000000000000000000000081526004018080602001828103825283818151815260200191508051906020019080838360005b838110156140e25780820151818401526020810190506140c7565b50505050905090810190601f16801561410f5780820380516001836020036101000a031916815260200191505b509250505060405180910390fd5b5082848161412757fe5b0690509392505050565b8280548282559060005260206000209081019282156141aa579160200282015b828111156141a95782518260006101000a81548173ffffffffffffffffffffffffffffffffffffffff021916908373ffffffffffffffffffffffffffffffffffffffff16021790555091602001919060010190614151565b5b5090506141b791906141bb565b5090565b5b808211156141f257600081816101000a81549073ffffffffffffffffffffffffffffffffffffffff0219169055506001016141bc565b509056fe45524332303a207472616e7366657220746f20746865207a65726f206164647265737345524332303a20617070726f766520746f20746865207a65726f206164647265737345524332303a207472616e7366657220616d6f756e7420657863656564732062616c616e6365536166654d6174683a206d756c7469706c69636174696f6e206f766572666c6f7745524332303a207472616e7366657220616d6f756e74206578636565647320616c6c6f77616e636545524332303a207472616e736665722066726f6d20746865207a65726f206164647265737345524332303a20617070726f76652066726f6d20746865207a65726f206164647265737345524332303a2064656372656173656420616c6c6f77616e63652062656c6f77207a65726fa264697066735822122087205d4fcdde84ca0dd45cfa4d0c42768bebaebc6868a7b17803d3ece612220364736f6c634300060c0033",
  "immutableReferences": {},
  "source": "pragma solidity ^0.6.0;\n\nimport \"./ERC20.sol\";\n\ncontract Vote is ERC20 {\n    using SafeMath for uint256;\n    \n    address public owner;\n    \n    enum EventState {\n        READY, OPEN, CLOSED, REFUNDABLE\n    }\n    \n    constructor(address _owner) ERC20(\"JDP token\", \"JDP\") public {\n        _setupDecimals(10);\n        initialize(_owner);\n    }\n    \n    // event struct\n    struct Event{\n        uint16 eventId;\n        address[] candidate;\n        address[] voter;\n        mapping (address => mapping (address => uint256)) voteToken; // voter => candidate => voteToken\n        address rewardOwner;\n        uint256 totalReward;\n        address[] finalWinner;\n        mapping (address => uint256) received_token; // candidate : total received\n        mapping (address => uint256) finalVoterToken;\n        mapping (address => uint256) finalReward;\n        EventState state;\n    }\n    \n    Event[] public eventList;\n    \n    modifier ownerOnly() {\n        require(msg.sender == owner);\n        _;\n    }\n    \n    function initialize(address _owner) internal {\n      if(_owner == address(0)) owner = msg.sender;\n      else owner = _owner;\n\n      _mint(owner, 1000000 * (10 ** uint256(decimals())));\n    }\n\n    function setOwner(address _owner) public ownerOnly {\n      owner = _owner;\n    }\n    \n    // create and init Event and push to the eventList\n    function createEvent(uint16 eventId, address[] memory candidateAddress) ownerOnly public {\n        uint count = eventList.length;\n        \n        bool findIt = false;\n        uint index = 0;\n        (findIt, index) = findIndexByEventId(eventId);\n        require(!findIt); // already exist\n        \n        eventList.push(Event({\n            eventId: eventId,\n            candidate: candidateAddress,\n            voter: new address[](0),\n            rewardOwner: msg.sender,\n            totalReward: 0,\n            finalWinner: new address[](0),\n            state: EventState.READY\n        })); \n        \n        assert(eventList.length == count+1);\n    }\n    \n    function getCandidate(uint16 eventId, uint candidateIndex) public view returns (address) {\n        bool findIt = false;\n        uint index = 0;\n        (findIt, index) = findIndexByEventId(eventId);\n        \n        require(findIt);\n        require(index < eventList.length);\n        require(eventList[index].candidate.length>candidateIndex);\n        \n        return eventList[index].candidate[candidateIndex];\n    }\n    \n    function getVoter(uint16 eventId, uint voterIndex) public view returns (address) {\n        bool findIt = false;\n        uint index = 0;\n        (findIt, index) = findIndexByEventId(eventId);\n        \n        require(findIt);\n        require(index < eventList.length);\n        require(eventList[index].voter.length>voterIndex);\n        \n        return eventList[index].voter[voterIndex];\n    }\n    \n    function getVoteToken(uint16 eventId, address voter_, address candidate_) public view returns (uint256) {\n        bool findIt = false;\n        uint index = 0;\n        (findIt, index) = findIndexByEventId(eventId);\n        \n        require(findIt);\n        require(index < eventList.length);\n        \n        return eventList[index].voteToken[voter_][candidate_];\n    }\n    \n    function getToken(uint16 eventId, address address_, uint target) public view returns (uint256) {\n        bool findIt = false;\n        uint index = 0;\n        (findIt, index) = findIndexByEventId(eventId);\n        \n        require(findIt);\n        require(index < eventList.length);\n        require(target<3);\n        \n        if(target == 0)\n            return eventList[index].received_token[address_];\n        else if(target == 1)    \n            return eventList[index].finalVoterToken[address_];\n        else if(target == 2)\n            return eventList[index].finalReward[address_];\n        else\n            return 0;\n    }\n    \n    function findIndexByEventId(uint16 eventId) internal view returns (bool findIt, uint index) {\n        for (uint i = 0; i < eventList.length; i++) {\n            if(eventList[i].eventId == eventId) return (true, i);\n        }\n        return (false, 0);\n    }\n    \n    function startVoting(uint16 eventId) ownerOnly public {\n        bool findIt = false;\n        uint index = 0;\n        (findIt, index) = findIndexByEventId(eventId);\n        \n        require(findIt);\n        assert(index < eventList.length);\n        require(eventList[index].state == EventState.READY);\n        \n        require(eventList[index].candidate.length < 256);\n        for (uint i = 0; i < eventList[index].candidate.length; i++) {\n            eventList[index].received_token[eventList[index].candidate[i]] = 0;\n        }\n        \n        eventList[index].state = EventState.OPEN;\n    }\n    \n    function stopVoting(uint16 eventId) ownerOnly public {\n        bool findIt = false;\n        uint index = 0;\n        (findIt, index) = findIndexByEventId(eventId);\n        \n        require(findIt);\n        require(index < eventList.length);\n        require(eventList[index].state == EventState.OPEN);\n        \n        eventList[index].state = EventState.CLOSED;\n    }\n    \n    function setRefundable(uint16 eventId) ownerOnly public {\n        bool findIt = false;\n        uint index = 0;\n        (findIt, index) = findIndexByEventId(eventId);\n        \n        require(findIt);\n        require(index < eventList.length);\n        require(eventList[index].state == EventState.CLOSED);\n        \n        setWinner(index);\n        distributeReward(index);\n        \n        eventList[index].state = EventState.REFUNDABLE;\n    }\n    \n    function setWinner(uint index) internal {\n        assert(eventList[index].state == EventState.CLOSED);\n        address[] memory candidate_ = eventList[index].candidate;\n        \n        require (candidate_.length > 0);\n        \n        address winner = candidate_[0];\n        uint256 winnerToken = eventList[index].received_token[winner];\n        \n        // find address received biggest token\n        for (uint i = 1; i < candidate_.length; i++) {\n            if(eventList[index].received_token[candidate_[i]] > winnerToken) {\n                winner = candidate_[i];\n                winnerToken = eventList[index].received_token[candidate_[i]];\n            }\n        }\n        \n        eventList[index].finalWinner.push(winner);\n        \n        // check multiple winner\n        for (uint i = 0; i < candidate_.length; i++) {\n            if(eventList[index].received_token[candidate_[i]] == winnerToken) {\n                // if not already pushed winner\n                if(candidate_[i] != eventList[index].finalWinner[0])\n                    eventList[index].finalWinner.push(candidate_[i]);\n            }\n        }\n    }\n    \n    function dropUnderSecondDecimal(uint256 value) view internal returns (uint256){\n        uint8 decimal_ = decimals() - 2 ;\n        require(decimal_ > 0 && decimal_ < 25);\n        uint256 dropDecimal = 10 ** uint256(decimal_);\n        return value.sub(value.mod(dropDecimal));\n    }\n    \n    function distributeReward(uint index) internal {\n        assert(eventList[index].state == EventState.CLOSED);\n        uint256 totalPot = eventList[index].totalReward;\n        uint256 candidatePot = totalPot.mul(7).div(10);\n        uint256 voterPot = totalPot.mul(3).div(10);\n        \n        assert(totalPot >= candidatePot.add(voterPot));\n        \n        // candidate\n        //address[] memory candidate_ = eventList[index].candidate;\n        uint256 totalReceivedToken = 0;\n        \n        // get totalReceivedToken\n        for (uint i = 0; i <  eventList[index].candidate.length; i++) {\n            totalReceivedToken = totalReceivedToken.add(eventList[index].received_token[eventList[index].candidate[i]]);\n        }\n        \n        for (uint i = 0; i < eventList[index].candidate.length; i++) {\n            eventList[index].finalReward[eventList[index].candidate[i]] = dropUnderSecondDecimal(candidatePot.mul(eventList[index].received_token[eventList[index].candidate[i]]).div(totalReceivedToken));\n            approve(eventList[index].candidate[i], eventList[index].finalReward[eventList[index].candidate[i]]);\n        }\n        \n        // voter\n        //address[] memory voter_ = eventList[index].voter;\n        uint256 totalVoterToken = 0;\n        uint256 token = 0;\n        // get totalVoterToken with winner bonus\n        for (uint i = 0; i < eventList[index].voter.length; i++) {\n            for (uint j = 0; j < eventList[index].candidate.length; j++) {\n                token = 0;\n                token = eventList[index].voteToken[eventList[index].voter[i]][eventList[index].candidate[j]];\n                if(isWinner(index, eventList[index].candidate[j]))\n                    token = token.mul(3).div(2);\n                    \n                eventList[index].finalVoterToken[eventList[index].voter[i]] = eventList[index].finalVoterToken[eventList[index].voter[i]].add(token);\n            }\n            totalVoterToken = totalVoterToken.add(eventList[index].finalVoterToken[eventList[index].voter[i]]);\n        }\n        \n        for (uint i = 0; i < eventList[index].voter.length; i++) {\n            eventList[index].finalReward[eventList[index].voter[i]] = dropUnderSecondDecimal(voterPot.mul(eventList[index].finalVoterToken[eventList[index].voter[i]]).div(totalVoterToken));\n            approve(eventList[index].voter[i], eventList[index].finalReward[eventList[index].voter[i]]);\n        }\n    }\n    \n    function isWinner(uint index, address candidate_) internal view returns (bool)  {\n        for (uint i = 0; i < eventList[index].finalWinner.length; i++) {\n            if(eventList[index].finalWinner[i] == candidate_) return true;\n        }\n        \n        return false;\n    }\n    \n    \n    function isValidCandidate(uint index, address candidate_) internal view returns (bool)  {\n        for (uint i = 0; i < eventList[index].candidate.length; i++) {\n            if(eventList[index].candidate[i] == candidate_) return true;\n        }\n        \n        return false;\n    }\n    \n    function IsExistVoter(uint index, address voter_) internal view returns (bool)  {\n        for (uint i = 0; i < eventList[index].voter.length; i++) {\n            if(eventList[index].voter[i] == voter_) return true;\n        }\n        \n        return false;\n    }\n    \n    function voting(uint16 eventId, address candidate, uint256 token) public {\n        bool findIt = false;\n        uint index = 0;\n        (findIt, index) = findIndexByEventId(eventId);\n        \n        require(findIt);\n        require(index < eventList.length);\n        require(eventList[index].state == EventState.OPEN);\n        \n        // check candidate and voter validity \n        require(isValidCandidate(index, candidate) == true);\n        \n        // sendToken to rewardOwner\n        sendTokenToRewardOwner(eventList[index].rewardOwner, token);\n        \n        if(IsExistVoter(index, msg.sender) == false)\n            eventList[index].voter.push(msg.sender); // add voter \n        \n        eventList[index].voteToken[msg.sender][candidate] = eventList[index].voteToken[msg.sender][candidate].add(token);\n        eventList[index].received_token[candidate] = eventList[index].received_token[candidate].add(token);\n        eventList[index].totalReward = eventList[index].totalReward.add(token);\n    }\n    \n    function sendTokenToRewardOwner(address recipient, uint256 token) internal {\n        transfer(recipient, token);\n    }\n    \n    \n    function fundReward(uint16 eventId, uint256 token) ownerOnly public returns (uint256) {\n        bool findIt = false;\n        uint index = 0;\n        (findIt, index) = findIndexByEventId(eventId);\n        \n        require(findIt);\n        require(index < eventList.length);\n        require(eventList[index].state == EventState.READY || eventList[index].state == EventState.OPEN);\n        \n        uint256 currentTotalReward = eventList[index].totalReward;\n        \n        sendTokenToRewardOwner(eventList[index].rewardOwner, token);\n        \n        eventList[index].totalReward = eventList[index].totalReward.add(token);\n        assert(eventList[index].totalReward == currentTotalReward.add(token));\n        return eventList[index].totalReward;\n    }\n    \n    function withdraw(uint16 eventId) public {\n        bool findIt = false;\n        uint index = 0;\n        (findIt, index) = findIndexByEventId(eventId);\n        \n        require(findIt);\n        require(index < eventList.length);\n        \n        require(eventList[index].state == EventState.REFUNDABLE);\n        \n        uint256 token = eventList[index].finalReward[_msgSender()];\n        require(token > 0);\n        \n        eventList[index].finalReward[_msgSender()] = 0;\n        eventList[index].totalReward = eventList[index].totalReward.sub(token);\n        \n        // send token from rewardOwner to msg sender\n        transferFrom(eventList[index].rewardOwner, _msgSender(), token);\n        \n    }\n}\n",
  "sourcePath": "/Users/jslee99a/WebstormProjects/blockchain-jdp/jdp-contract/contracts/Vote.sol",
  "compiler": {
    "name": "solc",
    "version": "0.6.12+commit.27d51765.Emscripten.clang"
  },
  "schemaVersion": "3.3.2",
  "updatedAt": "2020-11-16T01:58:24.424Z",
  "networkType": "ethereum",
  "devdoc": {
    "kind": "dev",
    "methods": {
      "allowance(address,address)": {
        "details": "See {IERC20-allowance}."
      },
      "approve(address,uint256)": {
        "details": "See {IERC20-approve}. Requirements: - `spender` cannot be the zero address."
      },
      "balanceOf(address)": {
        "details": "See {IERC20-balanceOf}."
      },
      "decimals()": {
        "details": "Returns the number of decimals used to get its user representation. For example, if `decimals` equals `2`, a balance of `505` tokens should be displayed to a user as `5,05` (`505 / 10 ** 2`). Tokens usually opt for a value of 18, imitating the relationship between Ether and Wei. This is the value {ERC20} uses, unless {_setupDecimals} is called. NOTE: This information is only used for _display_ purposes: it in no way affects any of the arithmetic of the contract, including {IERC20-balanceOf} and {IERC20-transfer}."
      },
      "decreaseAllowance(address,uint256)": {
        "details": "Atomically decreases the allowance granted to `spender` by the caller. This is an alternative to {approve} that can be used as a mitigation for problems described in {IERC20-approve}. Emits an {Approval} event indicating the updated allowance. Requirements: - `spender` cannot be the zero address. - `spender` must have allowance for the caller of at least `subtractedValue`."
      },
      "increaseAllowance(address,uint256)": {
        "details": "Atomically increases the allowance granted to `spender` by the caller. This is an alternative to {approve} that can be used as a mitigation for problems described in {IERC20-approve}. Emits an {Approval} event indicating the updated allowance. Requirements: - `spender` cannot be the zero address."
      },
      "name()": {
        "details": "Returns the name of the token."
      },
      "symbol()": {
        "details": "Returns the symbol of the token, usually a shorter version of the name."
      },
      "totalSupply()": {
        "details": "See {IERC20-totalSupply}."
      },
      "transfer(address,uint256)": {
        "details": "See {IERC20-transfer}. Requirements: - `recipient` cannot be the zero address. - the caller must have a balance of at least `amount`."
      },
      "transferFrom(address,address,uint256)": {
        "details": "See {IERC20-transferFrom}. Emits an {Approval} event indicating the updated allowance. This is not required by the EIP. See the note at the beginning of {ERC20}. Requirements: - `sender` and `recipient` cannot be the zero address. - `sender` must have a balance of at least `amount`. - the caller must have allowance for ``sender``'s tokens of at least `amount`."
      }
    },
    "version": 1
  },
  "userdoc": {
    "kind": "user",
    "methods": {},
    "version": 1
  }
}