{
  "contractName": "Voting",
  "abi": [
    {
      "inputs": [
        {
          "internalType": "bytes32[]",
          "name": "candidateNames",
          "type": "bytes32[]"
        }
      ],
      "payable": false,
      "stateMutability": "nonpayable",
      "type": "constructor"
    },
    {
      "constant": true,
      "inputs": [
        {
          "internalType": "uint256",
          "name": "",
          "type": "uint256"
        }
      ],
      "name": "candidateList",
      "outputs": [
        {
          "internalType": "bytes32",
          "name": "",
          "type": "bytes32"
        }
      ],
      "payable": false,
      "stateMutability": "view",
      "type": "function"
    },
    {
      "constant": true,
      "inputs": [
        {
          "internalType": "string",
          "name": "",
          "type": "string"
        }
      ],
      "name": "votesReceived",
      "outputs": [
        {
          "internalType": "uint8",
          "name": "",
          "type": "uint8"
        }
      ],
      "payable": false,
      "stateMutability": "view",
      "type": "function"
    },
    {
      "constant": false,
      "inputs": [
        {
          "internalType": "string",
          "name": "candidate",
          "type": "string"
        }
      ],
      "name": "voteForCandidate",
      "outputs": [],
      "payable": false,
      "stateMutability": "nonpayable",
      "type": "function"
    },
    {
      "constant": true,
      "inputs": [
        {
          "internalType": "string",
          "name": "candidate",
          "type": "string"
        }
      ],
      "name": "totalVotesFor",
      "outputs": [
        {
          "internalType": "uint8",
          "name": "",
          "type": "uint8"
        }
      ],
      "payable": false,
      "stateMutability": "view",
      "type": "function"
    },
    {
      "constant": true,
      "inputs": [
        {
          "internalType": "string",
          "name": "candidate",
          "type": "string"
        }
      ],
      "name": "validCandidate",
      "outputs": [
        {
          "internalType": "bool",
          "name": "",
          "type": "bool"
        }
      ],
      "payable": false,
      "stateMutability": "view",
      "type": "function"
    }
  ],
  "bytecode": "0x608060405234801561001057600080fd5b5060405161072e38038061072e8339818101604052602081101561003357600080fd5b810190808051604051939291908464010000000082111561005357600080fd5b8382019150602082018581111561006957600080fd5b825186602082028301116401000000008211171561008657600080fd5b8083526020830192505050908051906020019060200280838360005b838110156100bd5780820151818401526020810190506100a2565b5050505090500160405250505080600090805190602001906100e09291906100e7565b5050610159565b828054828255906000526020600020908101928215610123579160200282015b82811115610122578251825591602001919060010190610107565b5b5090506101309190610134565b5090565b61015691905b8082111561015257600081600090555060010161013a565b5090565b90565b6105c6806101686000396000f3fe608060405234801561001057600080fd5b50600436106100575760003560e01c80634a3bf3771461005c578063538c91b2146101315780638d4b44d914610204578063b13c744b146102d9578063e89927ef1461031b575b600080fd5b6101156004803603602081101561007257600080fd5b810190808035906020019064010000000081111561008f57600080fd5b8201836020820111156100a157600080fd5b803590602001918460018302840111640100000000831117156100c357600080fd5b91908080601f016020809104026020016040519081016040528093929190818152602001838380828437600081840152601f19601f8201169050808301925050505050505091929192905050506103d6565b604051808260ff1660ff16815260200191505060405180910390f35b6101ea6004803603602081101561014757600080fd5b810190808035906020019064010000000081111561016457600080fd5b82018360208201111561017657600080fd5b8035906020019184600183028401116401000000008311171561019857600080fd5b91908080601f016020809104026020016040519081016040528093929190818152602001838380828437600081840152601f19601f820116905080830192505050505050509192919290505050610468565b604051808215151515815260200191505060405180910390f35b6102bd6004803603602081101561021a57600080fd5b810190808035906020019064010000000081111561023757600080fd5b82018360208201111561024957600080fd5b8035906020019184600183028401116401000000008311171561026b57600080fd5b91908080601f016020809104026020016040519081016040528093929190818152602001838380828437600081840152601f19601f820116905080830192505050505050509192919290505050610491565b604051808260ff1660ff16815260200191505060405180910390f35b610305600480360360208110156102ef57600080fd5b81019080803590602001909291905050506104c7565b6040518082815260200191505060405180910390f35b6103d46004803603602081101561033157600080fd5b810190808035906020019064010000000081111561034e57600080fd5b82018360208201111561036057600080fd5b8035906020019184600183028401116401000000008311171561038257600080fd5b91908080601f016020809104026020016040519081016040528093929190818152602001838380828437600081840152601f19601f8201169050808301925050505050505091929192905050506104e8565b005b60006103e182610468565b6103ea57600080fd5b6001826040518082805190602001908083835b6020831061042057805182526020820191506020810190506020830392506103fd565b6001836020036101000a038019825116818451168082178552505050505050905001915050908152602001604051809103902060009054906101000a900460ff169050919050565b6000806000905060008054905081101561048657600191505061048c565b50600090505b919050565b6001818051602081018201805184825260208301602085012081835280955050505050506000915054906101000a900460ff1681565b600081815481106104d457fe5b906000526020600020016000915090505481565b6104f181610468565b6104fa57600080fd5b600180826040518082805190602001908083835b60208310610531578051825260208201915060208101905060208303925061050e565b6001836020036101000a038019825116818451168082178552505050505050905001915050908152602001604051809103902060008282829054906101000a900460ff160192506101000a81548160ff021916908360ff1602179055505056fea265627a7a72315820106681c371b335045632319d51e0b0027136ec2ebd580af0e6e04aedaaa2598364736f6c63430005100032",
  "source": "pragma solidity ^0.5.16;\n\ncontract Voting {\n\n\tbytes32[] public candidateList;\n\tmapping (string => uint8) public votesReceived;\n\n\tconstructor(bytes32[] memory candidateNames) public {\n\t\tcandidateList = candidateNames;\n\t}\n\n\tfunction voteForCandidate(string memory candidate) public {\n\t\trequire(validCandidate(candidate));\n\t\tvotesReceived[candidate] +=1;\n\t}\n\n\tfunction totalVotesFor(string memory candidate) view public returns(uint8){\n\t\trequire(validCandidate(candidate));\n\t\treturn votesReceived[candidate];\n\t}\n\n\tfunction validCandidate(string memory candidate) view public returns(bool){\n\t\tfor(uint i=0; i< candidateList.length; i++) {\n\t\t\treturn true;\n\t\t}\n\t\treturn false;\n\t}\n}\n\n",
  "sourcePath": "/home/jin/ethereum_voting_dapp/chapter2/contracts/Voting.sol",
  "compiler": {
    "name": "solc",
    "version": "0.5.16+commit.9c3226ce.Emscripten.clang"
  },
  "schemaVersion": "3.3.2",
  "updatedAt": "2020-11-09T17:00:42.263Z",
  "networkType": "ethereum",
  "devdoc": {
    "methods": {}
  },
  "userdoc": {
    "methods": {}
  }
}